:400000000010002011000000CD020000CD02000010B501F045FF00F061F9C04610B50F4C12232360182001F0BBFEFE2212020C4B1A600C4B0C4A1A60802189000B4A1160C1
:400040000B4A1A6000220B4B1A6040320A4B1A6001320A4B1A601123236010BD30001040000301400000014040FF00800403014041FF008028000340080101400001014035
:4000800010B572B6EE22124B1A60EE221202114B1A60FF23104A1360104A1360FB22104B1A60D73A0F4B1A60D8320F4B1A6080230E4A1360DB21C9010D4A11600D4A13603B
:4000C00002220D4B1A60FFF7A9FF00F0F9F810BD00010240000302400000044018000440000104400801044018010440000304400803044018030440180404400000000052
:4001000010B5064C2378002B07D1054B002B02D0044800E000BF0123237010BD0801002000000000D8230000084B10B5002B03D00749084800E000BF07480368002B00D11F
:4001400010BD064B002BFBD09847F9E7000000000C010020D8230000800000200000000010B562B600F012F901F09EFAEC204000444A010001F00AFB00F092FC00F052FCF6
:400180000028FBD100F01CF9002000F055FA43425841C0B201F0BAFC012000F04DFA43425841C0B201F0B2FC022000F045FA43425841C0B201F0AAFC032000F03DFA4342E2
:4001C0005841C0B201F0A2FC042000F035FA43425841C0B201F09AFC052000F02DFA43425841C0B201F092FC062000F025FA43425841C0B201F08AFC072000F01DFA4342D1
:400200005841C0B201F082FC082000F015FA43425841C0B201F07AFC092000F00DFA43425841C0B201F072FC0A2000F005FA43425841C0B201F06AFC0B2000F0FDF9434281
:400240005841C0B201F062FC0C2000F0F5F943425841C0B201F05AFC0D2000F0EDF943425841C0B201F052FC0E2000F0E5F943425841C0B201F04AFC00F0FAF900F010FCCF
:400280007CE7C046300200200B4B1B68002803D080221206134301E05B005B08064A1360064B1B68002802D02022134301E020229343024A1360704700200240280003409B
:4002C00010B50120FFF7E0FF10BDC04610B502F045F803680C2B00D1FEE7FEE770B50F4E0F4D13E029686B68AC68002202E001C901C30432A242FAD1E868002202E000210A
:4003000002C304328242FAD11035013E002EE9D102F02AF8FFF724FFFEE7C04601000000C428000010B500230AE0032B03D89A000849505800E008489900084A885001332D
:400340001F2BF2D9FFF79CFE80229205044B1A6010BDC04600000000CD0200000000002008ED00E010B5084B1B78002B06D100F027F900F073F90122034B1A7000F042F801
:4003800000F046FD10BDC0462401002010B5FFF7E9FF041E02D100F08DFC0400002C02D100F07EFB0400002C03D100F03BFB0028FBD100F063FA00F029FA200010BDC04604
:4003C00070B50E4E0024002513E06B0904339B000B4A9B581F222A40D340DB0707D5300000F062F804003100280000F0BDF8203601350E2DE9D9200070BDC046EC230000CF
:400400003002002070B5002309E012491A1D92008818002444600120404250500133002BF3D00D4C0F2310E06668A27E094B5B1900211976012A06D12069002803D0F17977
:40044000228B01F0C0FF20342B005D1E002BEBD170BDC04630020020EC23000010B582B0040008001300628869460A80228A01F075FE6B461B8863806B469B7823716B4621
:40048000DB7863716B461B79A37102B010BDC04630B50B884A889C1A0025CD800079844200DDCC8030BDC046F0B5574680B482B0824684684568837E0193C7690026002353
:4004C000009316E0298A20883A0001F074FE320039002800FFF7C2FF0C37019A2100280000F0DAF9009021002800FFF7D1FF0A34013653461B8B9E42E4D3009802B004BC53
:400500009246F0BDF0B50A8B8D684F680B69012125E00C00044003D17E88BA79B21802E07A88BE79921BEE88B24201D3002200E00A00A24202D01E78013E1E70A24202D0AD
:400540001C78002C07D188431043002A01D1FA7900E001221A7049000A3501336246541EA446002AD5D1F0BD70B504008A7E134B1B181D7E012A04D12800FFF7C3FF05004A
:4005800002E0002001F052FB0C4B1B191D7663091F2214401E3AA240002D07D104339B000649CB1859689143596006E004339B000249CB1859680A435A6070BD300200201E
:4005C00070B5184CEC2252000021200001F0FBFE154B238090231B016380144BA3800823238501222233E25420002C300E32FF320F49703101F0DEFE0E490C0010340F23A3
:400600000CE0A268238B04E00B78537201310A320300581E002BF7D120342B005D1E002BEFD170BD30020020AC540000B80B00005C250000DC2300000E280BD81F230340CB
:4006400001229A404009031D9B000348C3185868104000E000207047300200200023024AD380024A13607047300200201802002070B5002500263F4B1B68032B06D101F003
:4006800020FC01223C4BDA8001F01FFC3A4BDC88E4B2062C23D8A300384AD3589F460122344B1A6001261AE00022324B1A60012615E0FFF76BFE00222E4B1A6001250126FA
:4006C0000DE002222B4B1A60012608E00022294B1A60012603E00322264B1A600026002E0FD001F0EEFB244BDB88DBB29C4205D1214AD188224B0B439BB2D38001F0E5FBB0
:4007000000261C4B1B68012BB5D0022B2FD11A4ACF33FF33D35CDBB2D221FF31525CD2B20E2B24D8590117484118098B8A421ED21149088980B2E9246400095B89B2884294
:4007400015D05B010F49CB189C6893009A185300E41801F0B6FB084B1A8992B2E92149005A52228892B202315A5201F0AEFB280070BDC04618020020300200208028000094
:400780000080FFFFEC230000FF231940062902D08318002119715300195AC31859808218002313727047C04670B506000D00012305E0220029003000FFF7E6FF23005C1E3D
:4007C000002BF6D170BDC04610B54001054B1B188A00511848009A6894466044997EFFF7E3FF10BDEC23000070B505004301064AD3181B8B04E021002800FFF7E5FF23004C
:400800005C1E002BF7D170BDEC23000010B50F2303E02000FFF7E8FF23005C1E002BF8D110BDC046F8B5050043010D4AD3185E681B8B10E06A010A4B9B189F68A2001219F9
:400840005000D96963001B199A008A18318A385A01F0A5FC23005C1E002BEBD1F8BDC046EC23000010B50F2303E02000FFF7DAFF23005C1E002BF8D110BDC04610B5FFF7FE
:40088000F1FF10BD9840504380235B009A1A51434018000A7047C046F0B5474680B482B007000E00019201233EE06300985BF3185988884205D3431A3219002515720122CE
:4008C00001E00B1A0022002A11D17D79AB420ED933191B7A3A7A934205D3220001993000FFF752FF1FE03219013313721BE03D79AB4204D97D79AB4215D2002A13D1FF230D
:40090000019A1340062B0ED00902331998461B79194308230122FFF7B5FF020A6300F3185A804346187123005C1E002BBDD1002002B004BC9046F0BD70B504000D009F28CF
:4009400008D91B4B994205D91A49280001F000FD002921D09F2C09D9FF235B009D4205D91549280001F0F4FC002917D09F2C07D97E2D05D97F21280001F0EAFC00290FD0AB
:400980009F2C0FD93E2D0FD93F21280001F0E0FC00290BD000200AE0042008E0032006E0022004E0002002E0002000E0012070BDFE030000FF030000FF01000010B54B1E32
:4009C000DBB2032B01D8102300E00023002911D0002B11D0642253430100180001F032FC002301E0013340000928FBD90A2804D9013B02E0002300E00023D8B210BDC04696
:400A000010B5064A1368F0218B431360044A1368EF398B43136000F0C7FC10BD00040240A8020B40024BDB68802018407047C0463002002010B50E4BDB68DB030DD40E28FA
:400A40000DD8430904339B00094A9B581F220240D340DB0705D4012404E0112402E0012400E00024002C01D100F0B0FC200010BD3002002010B5084BDB68DB0307D4074B54
:400A80001B78012B05D100F025FC002003E0112001E00120404210BD300200201C02002010B50F4BDB681B0618D400240120404211E02000FFF7BEFF00280BD10D2C03D869
:400AC0000122084B5A7002E00022064B5A70FFF7D1FF04E001340E2CEBD900E0112010BD300200201C02002010B504000C4B1B78834214D0012B01D1FFF782FF012C05D178
:400B000000F052FA0122064B1A7008E0022C06D0042C04D0032C02D00022014B1A7010BD1C02002030B500200D4B16E019680A681C69A2430A605C6822689D7E0721A940F3
:400B40008A4311000622AA400A43226099680A685C69A2430A601C3301300E28E6D930BDDC26000010B51B4A93780133DBB293709078C0B2FFF75EFF041E09D1154B9B7896
:400B80000E2B02D10022134B5A70FFF773FF1EE0104B9B780E2B11D10F4B1A8901321A81DA6880218A43DA60DA681202120ADA60DA6804061443DC60002408E0064AD36819
:400BC0001B021B0AD360D16803060B43D360002CC9D110BD1C02002030020020074A084B1A6001380002074B1860054B1B68002BFBDB054A024B1A607047C0464000004050
:400C0000000001400003014040FF008070B5002512E06B010A4A9E58002406E0E3001B1B9800301800F0A0FB01346B01044AD3181B7E9C42F2D301350E2DEAD970BDC04673
:400C4000EC2300004001024B1818436858897047EC2300000203121A01238B40013B9A4205D90202101A834203D3052002E0062000E00020C0B2704770B50E00FFF7E2FF16
:400C800005003188002200F041FA01002800FFF753FE041E04D168003188FFF7DBFF040021002800FFF78AFE0001C0B22043307370BDC04670B598B0FA239B0002AA1380F6
:400CC000414B53807C33FF3393802A233F4AD15C3F4801F0B7FA02AB98810026002539E073013C4AD3185C680C2323800023237302AB9889384901F0A5FA608155213000B1
:400D000000F038FC23000A330693344B1B7802AA1376334B1888FA239B005843314901F091FA02ABD881180001F0B0F92E4B984203D9062501E05B00638102AB99896389FB
:400D40002A4A5A439142F6D8032BF4D9B20009ABD05001360E2EC3D900241EE063011D4AD3185E685521200000F004FC054333000A330693A20009ABD35801930493174BAE
:400D80001B7802AA1376F389D380330010330793100001F0ABF9308001340E2CDED900240CE063010B4AD31859682000FFF764FF5521200000F0DEFB054301340E2CF0D944
:400DC000280018B070BDC046E507000030020020C05D0000EC230000DC050000880000208A000020FF0F0000870D01007017000010B5002407E06301044AD31859682000BB
:400E0000FFF73AFF01340E2CF5D910BDEC23000010B5FFF7EDFFFFF785FE00F0C5F80120FFF762FE002010BD70B501F04AF8134A1368F0218B43136001F047F801F041F85D
:400E40000F4A136802218B43136001F03EF801F038F80C4C23683825AB4330221343236001F033F8012001F007F801F02AF82368AB43236001F029F870BDC04600040240D2
:400E8000000404400804044001390843014B18607047C04600020B4010B5104B1B68702293431C002A230E4AD15C0E4801F0CAF90D4B984204D820232343084A13600BE0DD
:400EC000084B984204D830232343044A136003E040232343014A136010BDC046840000203002002000366E01001BB700034A044B1A60C1225204034B1A6070470000830173
:400F0000C0010B40C4010B40074B1A687F210A40064802431A60064A13680B40802109040B4313607047C046C0010B4000008301C4010B40064A136806490B431360064ABD
:400F4000064B1A60C1225204054B1A607047C046A8020B400100001000008301C0010B40C4010B4070B50E001500038801249C40013CA3001B195800642101F063F90130FD
:400F800083199C4200D22300B04201D8301A00E00020A84203D8AB4203D2062002E0062000E0002070BDC04670B5FFF72FFEFFF73BFFC0221203284B1A60284B1968284EFF
:400FC000314319600024274A1460274A1460274A1460274A1460274A1460274A1460274A1460274D2C60274A1460274A1168F0208143903801431160244A116880204001B5
:401000000143116080214900214A11601A6832431A6080235B041F4A13601F491F4A11601F4A14602B60FFF761FF2A231D4AD05CFFF7D4FDFFF730FF1B4B1B681B4A134376
:401040001B4A13600F221B4B1A601B4B1C60053A1A4B1A6070BDC04604020B40A8020B4001000010F4000B40B4020B40C0020B4020030B4084010B4088020B4080020B40D0
:4010800084020B4080010B400004024094020B40A0020B40A4020B404112000088010B4090020B4030020020840000200010008000000B4000030B40F0010B4010030B40D1
:4010C00070B5050000F0FDFE0C490B687F26B3430B4A14782D196A7A13430B6000F0F5FE00F0EFFE07490B68B343074A12681419627A13430B6000F0E8FE70BDC0010B408F
:401100009C280000C4010B400804002010B503001400012088400138002B02D0190001F091F8053C012C00D84008002800D1013010BDC04610B50C4B1B785B010B4AD3184B
:401140005B6859891B7B18045A1F012A02D8802292041043053BDBB2012B02D8490800D10131FFF791FE10BD1E020020EC23000010B50300408919881A7BFFF7C7FF0004C0
:40118000000C014B186010BD14030B4010B50A2000F038FD01222D4B1A6000232C490B602C490B602C490B6006202C490860FA302B4908602B490A60832149002A4A11608B
:4011C0002A4A136003222A4B1A60E123DB0100E0013B254A1268520701D4002BF8D1002B02D10822224B1A60832252001E4B1A600A2000F011FD0A2000F0FAFC0023184A47
:401200001360144A1360144A1360144A13605021144A11604F390E4A11600C4A1360154A1368802149040B43136002220F4B1A60E123DB0100E0013B0F4A1268520701D0F4
:40124000002BF8D10D4A0A4B1A6010BD80010B408C010B40B0020B40B4020B4088020B4080020B40F0010B40F0000B40F8000B4040030B4000020B4000000B40010300005F
:4012800010B5054AD36805490B43D3600A2000F0F3FDFFF77BFF10BD300200208000010070B50400857E067E00F00BFE23681B680F22B24093431A000423B34013436668EE
:4012C00032680721A9408A4332602268136000F0FCFD70BD70B5154E3378154D5B01EB185868144C0023237033785B01EB1899682378DBB29A00D3185A008A180E4B1A6080
:40130000FFF7DEFE33785B0158592278D2B2D3009A1A9300C018094B1860FFF7C1FF084800F028FCFFF7ACFF70BDC0461E020020EC2300001F020020080400200C0400206D
:40134000F51F000010B54001054BC058CB00591A8B00C018034B1860FFF7A2FF10BDC046EC2300000C04002070B50400007EA57E21680B680F22824093430B6000F0A1FD53
:4013800061680B680722AA4093431A000623AB4013430B6000F099FDA1680B68607E0122824093430B6070BD10B5064B1B78012B06D1054B1868FFF7D7FF0022014B1A70A6
:4013C00010BDC046200200200C04002070B5104E4301F3185D68C0B20E4C20700120FFF783FBFFF7E1FF23785B019A590A4B1A600A4BDA687F218A43DA602178DA680A432B
:40140000DA602800FFF7B4FEFFF794FE70BDC046EC2300001E0200200C0400203002002070B54301134AD3185D68C9B2124C217099682378DBB29A00D3185A008A180F4B32
:401440001A60FFF7C3FF2800FFF73AFE2378DBB20B49DA00D31A98000B689C4660440860FFF71EFF0122074B1A70074800F082FB70BDC046EC2300001F020020080400202B
:401480000C04002020020020C91F0000F0B5474680B482B007000E0090462E4A13785B012D49CB185B680193002333701078C0B22A4B1978C9B2FFF7B3FFFFF725FD00241B
:4014C0008025BC4202D23378AB4333706D0833782B4333700198FFF7F3FDFFF7D1FEE123DB0100E0013B1E4AD268120601D5002BF8D11C4B1B681C88002DE2D1154B1B78E3
:401500005B01154A9858154B1A78D2B2D3009A1A9300C018144B1860FFF726FF0022134B1A70FFF707FD220039000198FFF71AFD43461A7833789A4204D2424613700C4AC8
:401540001371D480074B1B6832785A7202B004BC9046F0BD1E020020EC2300001F02002030020020080400200C0400202002002084000020F0B54F4680B484B004008946BA
:401580004301384AD3185F68012503AB1D703B882800984001384843642100F053FE0190E2B2314B1A70314800F0E4FA3E0009362F4B1D71DD8000222E4B1A7000250AE07D
:4015C00003AA31000198FFF761FF0543294A13780133DBB213706301224AD318DA7E254B1B78DBB29A42EBD803AB1B7801335B087B7200221F4B1A7022E06301194AD318C3
:401600009E681C4B1B78DBB29A00D3185A00B618194B1E60737A787A83420AD31B1AD8B270724B4658436330642100F00BFE707201E0002373720F4A13780133DBB213703C
:401640006301084AD318DA7E0A4B1B78DBB29A42D3D80022074B1A70280004B004BC9146F0BDC046EC2300001E020020C91F0000840000201F0200200804002010B507201D
:4016800000F0B6FA10BDC04610B500F01DF810BD10B5044A1368802109060B431360FFF7EDFF10BD0000084010B5064B1B78002B04D1FFF7E9FF0122024B1A70FFF7E8FFCC
:4016C00010BDC0462402002010B500241A4B1C601A4A1B4B1A601B4B1B4A13601B4A14601B491C4A11601C4A13601C4B1C60072000F088FA0321072000F0ACFA18490720B3
:4017000000F096FA174B1C60174B1C605222FF32164B1A60164B1C60164B1C60164B1C60503AFF3A154B1A70154B1C70154B1C80154B1C8010BDC046000008400008004062
:40174000600008400701008000030840040308401000FE00100308400002084004020840BD170000C80E0840880E0840480F0840080F0840C80F0840880F0840140400209A
:4017800018040020120400201004002070B506000D00141E0BD0072000F034FA044B1C60044B1E80044B1D80072000F021FA70BD1C040020200400201604002070B5B44B14
:4017C0001B68002B00D09847B24B1C88B24B1D68B24B1E680223FF331D4239D0B04A13685B005B081360AF4A137820218B431370117810230B43DBB21370AB4B1B68DB06F7
:401800000CD4A44B1A88A94B1B889A420CD0A54A117808230B43DBB2137005E0A14A117802230B43DBB21370A14A1168A14B0B4013600023A04A13609B4A136002229F4B17
:401840001A70974A1368802109060B4313601BE1F30602D500229A4B1A600A23334200D1A3E0984B1B685B0769D5974B1A68934B1B78012B04D0002B22D0022B16D057E08C
:40188000924B1B88002B0DD00121914B1960914B1B681B19D2B21A7001348C4A1388013B138048E002228A4B1A6044E00121884B1960D2B2854B1A800022804B1A703AE067
:4018C000824B1B881B021A43834B1B889A422BD201217F4B1960814B1B889A4202D29B1A9BB200E0002379490B80072B03D80121724B197014E0082B09D16D490B68A0207F
:40190000000203430B6000216B4B196008E068490B688020800103430B600821664B1960624B1A80140006E00222694B1A6002E0002000F07BF90422694B1A6035E05C4B6A
:401940001B689B0431D5B3070DD5664B1B681F211940574A1068574B03401360012014E00821012011E0594B1988083989B219800829F5D8002008E0564B1B681B19524AC1
:401980001268D2B21A70013401390029F4D1002808D1474A1368802109020B4313600022454B1A600C224E4B1A60B3074BD5EB0615D50023404A13603B4A13603B4B1B8865
:4019C0009C4201D1022300E00A232B40354A11780B4320218B4313700222384B1A706B062FD5304A117820230B43DBB213702F4B1B881C003C4A1268D20612D5364A128856
:401A0000D31A324A1380394B1A68802149020A431A601968364A0A401A601022224B1A6002E00422244B1A600122324B1A603249194B196031490868102303430B60244B73
:401A40001A60154B1D60154B1B685B071CD51F4B1B88002B0CD01F4B1B681B191B78DBB2274A13600134194A1388013B138002E0FF22234B1A60234B1B681F221340082BFB
:401A8000E5D10F3A204B1A60024B1C8070BDC0462802002012040020400F0840000E08400000084018040020880F08401004002060000840FF5FFFFFC80F084014040020C7
:401AC000880E0840CC0F0840400308402C0200206C0008401C0400202004002016040020C00F0840080308406400084004020840FFFFFEFF800E0840FF0F0000480F0840B8
:401B00004002084008020840800F084004490A68D2B210239A430001184010430860704700030440014B98667047C0460000002010B5040000F0C5F9044A1168044B0B408E
:401B4000A4051C43146000F0C0F910BD08E400E0FFFF3FFF8022D200014B1A607047C04600E100E08022D200014B1A607047C04680E100E010B50400FFF7F4FF2000FFF7B3
:401B8000D1FF0320FFF7D4FFFFF7E4FF10BDC0460C4B1B689B001C22134018330A4A1268920803210A40D34008490868084A02400A60084A944663441B78DBB2064A13600E
:401BC0007047C046080F03402800034000000740FFFFFFBFCDF1FF0F0C0F0340034B18688023DB05184000D001207047000007401F2318401E3B8340014A13607047C0466D
:401C000000E100E01F2318401E3B8340014A13607047C04680E100E01F2318401E3B8340014A13607047C04680E200E001BE704770B504000D000F2802D90020FFF7F6FF35
:401C40001034A40080239B059C4664442068256070BDC04670B504000E00032902D90020FFF7E4FF0F2C02D90020FFF7DFFF03252540ED00063500F024F9A408A400074BCA
:401C80009C46644421680323AB4099430B003100A9401943216000F018F970BD00E400E010B5040006E0084B586800F001F9074B9C46644480231B029C42F4D8024B9868F1
:401CC000604300F0F5F810BD8C0000200080FFFF70B582B000F0DAF800284DD000F0F1F80500264B1A6892001C231A401832244B1B689B0803210B40DA400021214B1960A5
:401D0000214C2168214B0B4021494A438021C9018C466244D20B013A5205520D1343A0225203134323601B4B1B680193302000F083F9194A13688021C9050B431360266833
:401D4000164B1E40002407E00120FFF7A9FF1034A30533430C4A1360EE2CF5D90120FFF79FFFFF239B051E43074B1E60019A094B1A60280000F0A9F802B070BD080F0340C4
:401D8000280003400C0F03400800074000F800C040420F003000104000000740FFFF3FC0F0B583B0040018280BD01C2809D0202807D0242805D0282803D02C2801D030280A
:401DC00049D100F07EF80190FFF708FF002803D0FFF7DEFE012600E00026214A136807218B4313601F4BE3181B78DBB21E4A13601E4A13688B4313601D4803687F229343C1
:401E000019001C4BE3181B7813400B430360322000F04EF8182C16D9114F3B680725AB431A0023001C3B9B082B4013433B60322000F03EF83A68AA432300183B9B082C00D9
:401E40001C4014433C60012E01D1FFF741FF019800F03BF802E00020FFF7E8FE03B0F0BD080F0340CDF1FF0F0C0F0340100F0340180F0340B4F1FF0F10B5034B1B7B58439B
:401E800000F016F810BDC0468C000020034B1B68002B01DA012000E00020704700000740014A024B1A6070476588EDAC380003400230800803D001300238FCD1C046C04614
:401EC0007047EFF3108072B6704780F3108870470E4B1B785B010E4AD3185B680D4A11680A04120C188801238340013B9A4206D2094B1A68094B1B785B00D15205E0064AE7
:401F00001168064A127852008B5270471E020020EC230000D0000B40080400209C28000070B5224B1A78224952018A1850681B785B01CB181A7E013A1E4B1B78DBB29A42C8
:401F40001CD91C4C23780133DBB22370174D2B785B01CB1899682378DBB29A00D3185A008A18154B1A60FFF7ABF82878C0B22178C9B2FFF7E7F9FFF709F916E000220D4B4E
:401F80001A700E4AD1680E4B0B40D3600D4B1B78012B02D1FEF7E6FD07E0084BDA6880218A43DA601A8901321A8170BD1E020020EC2300001F02002008040020300200209D
:401FC000FFFFFEFF1D02002010B583225200064B1A60FFF77DFF054B1A8901321A81D968034A0A40DA6010BDF0000B40300200207FFFFEFF10B50C4B1B785B010B4A9C58B2
:402000000B4B1A78D2B2D1008A1A9300E41883225200084B1A60FFF75BFF2000FFF7A4F9FFF77EFF10BDC0461E020020EC2300001F020020F0000B4070B50400FFF741FFF9
:402040000500102C05D8104A136803218B43136016E0202C07D80C490B6803229343023A13430B600CE0302C07D807490B6803229343013A13430B6002E00020FFF7D6FD7B
:402080002800FFF722FF70BD30001040F7B5036986890193C3898588FA275D43019B04001988300000F0CEF8BF007D4381B2280000F0C8F8237E6188584300F0C3F80500D9
:4020C00020883900684300F0BDF80749704300F0B9F80123002802D040085B00FAE7019A28001380FEBDC04600E1F50570B504004088217E0304181AA388594300F0A2F85D
:40210000236905001988A08900F09CF880B26843104900F097F8E3880A21584300F092F800230D4AA16810258A425B410222D31A62325343984204D9013DEDB24008062DF6
:40214000F8D14B236421584300F07CF864692080280070BDA0860100A761000010B50024A34200D00C880388101C9B009BB29A4200D2181C83B2221C9C4200D2021C93B27A
:402180000A805A08FF2A01D9FF2200E0D2B28A70CA70DB08FF2B00D9FF230B7110BD8B0813800F2393720023C90851809080D0801081D3727047937A30B594885B00041B8F
:4021C0009080DBB2002C01DB937202E00133937264420F23957A1D4053889572A34203D9012B03D9013B00E0013353800F2D05D0002D03D053889D00AC4204D90023D08041
:402200001081D3721DE0D488844201D9D08003E01489844200D21081D07A092802D80130D0720EE01089D488001B80B2834204D989088B4203D9013B00E001335380538804
:40224000138030BD002243088B4274D303098B425FD3030A8B4244D3030B8B4228D3030C8B420DD3FF22090212BA030C8B4202D31212090265D0030B8B4219D300E0090A08
:40228000C30B8B4201D3CB03C01A5241830B8B4201D38B03C01A5241430B8B4201D34B03C01A5241030B8B4201D30B03C01A5241C30A8B4201D3CB02C01A5241830A8B4274
:4022C00001D38B02C01A5241430A8B4201D34B02C01A5241030A8B4201D30B02C01A5241CDD2C3098B4201D3CB01C01A524183098B4201D38B01C01A524143098B4201D3E8
:402300004B01C01A524103098B4201D30B01C01A5241C3088B4201D3CB00C01A524183088B4201D38B00C01A524143088B4201D34B00C01A5241411A00D2014652411046F5
:402340007047FFE701B5002000F006F802BDC0460029F7D076E770477047C046014B18687047C046000100200E4B70B500251E000D4CE41AA410A54204D0AB00F358984770
:402380000135F8E700F08CFA084B00251E00084CE41AA410A54204D0AB00F35898470135F8E770BDAC280000AC280000AC280000B4280000002310B59A4203D0CC5CC454F5
:4023C0000133F9E710BD03008218934202D019700133FAE7704700000000000020202020202020202020202020202000DC2600005C0200206A030020000000001402002040
:402400000128000001000101D0010020F82600006E0200207403002000000000100200200128000001000101C401002014270000800200207E030020000000000C0200204B
:402440000128000001000101B801002030270000920200208803002000000000080200200128000001000101AC0100204C270000A40200209203002000000000040200206A
:402480000128000001000101A001002068270000B60200209C030020000000000002002001280000010001019401002084270000C8020020A603002000000000FC0100208B
:4024C000012800000100010188010020A0270000DA020020B003002000000000F801002001280000010001017C010020BC270000EC020020BA03002000000000F4010020AC
:40250000012800000100010170010020D8270000FE020020C403002000000000F0010020012800000100010164010020F427000010030020CE03002000000000EC010020CA
:402540000128000001000101580100201028000022030020D803002000000000E801002001280000010001014C0100202C28000034030020E203002000000000E4010020E7
:402580000128000001000101400100204828000046030020EC03002000000000E00100200128000001000101340100206428000058030020F603002000000000DC01002007
:4025C0000128000001000101280100200C00640028280A031E2004000000A00000000C00640028280A031E2004000000A00000000C00640028280A031E2004000000A00059
:4026000000000C00640028280A031E2004000000A00000000C00640028280A031E2004000000A00000000C00640028280A031E2004000000A00000000C00640028280A03C0
:402640001E2004000000A00000000C00640028280A031E2004000000A00000000C00640028280A031E2004000000A00000000C00640028280A031E2004000000A00000006B
:402680000C00640028280A031E2004000000A00000000C00640028280A031E2004000000A00000000C00640028280A031E2004000000A00000000C00640028280A031E2002
:4026C00004000000A00000000C00640028280A031E2004000000A0000000000000010240080104400001044004010440000F000004000000080206000001024008010440B6
:40270000000104400401044000F00000080000000C0309000001024008010440000104400401044000000F001000000010040C000001024008010440000104400401044080
:402740000000F0002000000014050F00000102400801044000010440040104400000000F4000000018061200000002400800044000000440040004400F000000010000005A
:402780000000000000000240080004400000044004000440F0000000020000000401030000000240080004400000044004000440000F000004000000080206000000024086
:4027C00008000440000004400400044000F00000080000000C0309000000024008000440000004400400044000000F001000000010040C00000002400800044000000440C6
:40280000040004400000F0002000000014050F00000002400800044000000440040004400000000F400000001806120000000240080004400000044004000440000000F075
:40284000800000001C07150000010240080104400001044004010440000000F0800000001C07150000030240080304400003044004030440000000F0800000001C0715000C
:40288000DE0600009E060000A8060000B2060000C2060000CC060000D606000000430000F8B5C046F8BC08BC9E4670472901000025030000F8B5C046F8BC08BC9E46704793
:4028C00001010000D828000080000020880000002003000000000000000000002000000401000100010000000000E02EC05D00001800000000366E0100000000000000007C
:402900000000000000000000000000000000000000000000000000009D280000000000000000000000000000000000000000000000000000000000000000000000000000D2
:40294000000000000000000000000000000000000000000000000000A000002000000000000000000000000000000000000000000000000000000000000000000000000097
:402980000000000000000000000000000000000000000000000000000000000000000000000000000000000000000000000000000000000000000000000000000000000017
:4029C00000000000000000000000000000000000000000000000000000000000000000000000000000000000000000000000000000000000000000000000000000000000D7
:402A00000000000000000000000000000000000000000000000000000000000000000000000000000000000000000000000000000000000000000000000000000000000096
:402A40000000000000000000000000000000000000000000000000000000000000000000000000000000000000000000000000000000000000000000000000000000000056
:0200000490303A
:02000000414578
:0200000490402A
:200000000000000000000000000000000000000000000000000000000000000000000000E0
:0200000490501A
:0C0000000002190111A90001190D52EEB7
:0200000490600A
:0100000001FE
:00000001FF